:020000041000EA
:1000000000B5324B212058609868022188439860DF
:10001000D860186158612E4B002199600221596106
:100020000121F02299502B49196001219960352056
:1000300000F044F80222904214D00621196600F024
:1000400034F8196E01211966002018661A6600F04E
:100050002CF8196E196E196E052000F02FF8012189
:100060000842F9D1002199601B49196000215960AB
:100070001A491B48016001219960EB211966A021F2
:10008000196600F012F800219960164914480160C1
:100090000121996001BC002800D000471248134993
:1000A000086003C880F30888084703B5996A0420EC
:1000B0000142FBD001200142F8D103BD02B5186610
:1000C0001866FFF7F2FF186E186E02BD00000240BE
:1000D000000000180000070000035F00212200005C
:1000E000F4000018222000A00001001008ED00E03C
:1000F00000000000000000000000000074B24E7A12
:1001000000000420591600109D1600109D160010C6
:1001100000000000000000000000000000000000DF
:100120000000000000000000000000009D1600100C
:100130000000000000000000F5010010C10A0010DE
:100140009D1600109D1600109D1600109D160010A3
:100150009D1600109D1600109D1600109D16001093
:100160009D1600109D1600109D1600109D16001083
:100170009D1600109D1600109D1600109D16001073
:100180009D1600109D1600109D1600109D16001063
:100190009D1600109D1600109D1600109D16001053
:1001A0009D1600109D1600109D1600109D16001043
:1001B0009D1600109D1600109D16001080B586B08B
:1001C00000AFF860B9607A60FA68BB68D3187B61E9
:1001D0007B69403B7B617B6980225204DA637B68E8
:1001E000012293431A007B699A637B691800BD461C
:1001F00006B080BD012080F3108815490860F0B476
:100200004046494652465B460FB4124801680029F1
:1002100001D06A460A6010490A68002A09D10260C2
:10022000002383F31088012383F310880A68002ACF
:10023000F6D00260106885460FBC9B469246894600
:100240008046F0BC02480021016081F310887047AD
:10025000F0010020E8010020EC01002080B582B010
:1002600000AF78607B6883F31088C046BD4602B05B
:1002700080BD80B582B000AFEFF310837B607B68F8
:100280001800BD4602B080BD80B584B000AF786074
:10029000FFF7EFFF0300BB600120FFF7DFFF002344
:1002A000FB6002E0FB680133FB60134BFA68D2008D
:1002B000D35C002BF6D1FB68072B10DC0E4BFA68E1
:1002C000D2000121D1547B685A680B49FB68DB00DE
:1002D000CB1804331A60FB680133FB6002E0222371
:1002E0005B42FB60BB681800FFF7B8FFFB681800B3
:1002F000BD4604B080BDC0466400002080B584B017
:1003000000AFF860B9607A607B680122134006D0C4
:10031000FB68BA6813405A1E9341DBB207E0FB68E2
:10032000BA681340BA68D31A5A425341DBB2180074
:10033000BD4604B080BD80B586B000AF786039603E
:1003400000233B617B68002B02DD7B68082B02DD0C
:1003500012235B4275E0FFF78CFF0300FB60012076
:10036000FFF77CFF7B68013B7B607B68DA00374BE3
:10037000D318BB60BB681B78012B58D1BB685A6887
:100380003B681A43BB685A60314B1B687B614AE08B
:100390007B6924229B5C032B42D1BB6858687B6934
:1003A000196B7B695B6B1A00FFF7A8FF031E37D040
:1003B0007A69274B1100180000F018FD7B690122B3
:1003C0001A737B692422002199547B699B6BBA685C
:1003D00052681A607B695B699A001E4BD3187A6970
:1003E0001100180000F0C0FC00F050F97B695B6B55
:1003F000202213400BD0BB685A687B691B6BDB4320
:100400001A40BB685A60BB685B68002B13D07B69DD
:100410005B6B1022134003D0BB6800225A600BE0D4
:100420007B699B687B617B69002BB1D104E02A2347
:100430005B423B6100E0C046FB681800FFF70EFF1F
:100440003B691800BD4606B080BDC0466400002070
:1004500054020020A801002080B586B000AF78606B
:10046000396000237B617B68002B02DD7B68082BF1
:1004700002DD12235B4221E0FFF7FBFE03003B613C
:100480000120FFF7EBFE7B68013B7B607B68DA00B5
:100490000C4BD318FB60FB681B78012B06D1FB6863
:1004A0005B683A681A40FB685A6002E02A235B42A4
:1004B0007B613B691800FFF7D1FE7B691800BD46E0
:1004C00006B080BD6400002080B588B000AFF86041
:1004D000B9607A603B6000237B61FB68002B02DD22
:1004E000FB68082B02DD12235B4279E0FFF7C1FEB7
:1004F0000300FB610120FFF7B1FEFB68013BFB60DD
:10050000FB68DA00384BD318BB61BB691B78012B41
:100510005ED1BB695B687A68B9681800FFF7EEFEC8
:10052000031E16D0BB695A683B681A607B6820229C
:10053000134006D0BB695B68BA68D2431A40BB69F6
:100540005A607B681022134045D0BB6900225A6074
:1005500041E0BB6A002B03D132235B427B613AE06E
:10056000224B1B685B699A00214BD318180000F0DE
:1005700020FC1E4B1B6802221A731C4B1B68242292
:1005800003219954BB6A013303D0BB6A0A331A00B2
:1005900000E0BA6A154B1B689A62144B1B68BA6874
:1005A0001A63124B1B687A685A63104B1B683A68CF
:1005B0009A630E4B1B681422BA18DA620B4B1A6846
:1005C0000C4B1100180000F0CFFB00F05FF802E0C8
:1005D0002A235B427B61FB691800FFF73FFE7B69C2
:1005E0001800BD4608B080BD64000020E80100206E
:1005F000A80100205402002080B582B000AF7860CE
:10060000396000F00FFA064B180000F02FFA01F0E5
:1006100081F900F083FBC046BD4602B080BDC046F4
:10062000F81C001080B500AF084B180000F0A2FACB
:100630000200074B1A60064B1B680021180000F0EF
:100640001FFB044B180000F011FAFEE70000002029
:10065000A40100200C1D001080B582B000AF7860AE
:1006600039607B683A681A60C046BD4602B080BDFA
:1006700080B500AF80235B05034A19001000FFF727
:10068000EBFFC046BD4680BD04ED00E080B582B002
:1006900000AF00237B6008E01C4B7A689200D358BF
:1006A000002B06D17B6801337B607B680F2BF3DD69
:1006B00000E0C0467B680F2B06DC144B7A68920082
:1006C000D258134B1A6002E0114B00221A60104BF3
:1006D0001A68104B1B689A4207D00D4B1B68002B01
:1006E00003D00D4B180000F0C1F9094B1A68094BF3
:1006F0001B689A4205D0094B1B68002B01D1FFF7FC
:10070000B7FFC046BD4602B080BDC046A80100206C
:10071000EC010020E8010020201D0010F001002065
:1007200080B582B000AF78607B6883F31088C046E4
:10073000BD4602B080BD80B582B000AFEFF310833C
:100740007B607B681800BD4602B080BD80B584B078
:1007500000AF7860FFF7EFFF0300BB600120FFF7F9
:10076000DFFF0023FB6002E0FB680133FB601D49F3
:10077000FA6813005B009B189B005B5C002BF3D1B5
:10078000FB68072B21DC1749FA6813005B009B18F4
:100790009B0001225A547B6859681248FA6813007A
:1007A0005B009B189B00C318043319607B68996831
:1007B0000C48FA6813005B009B189B00C3180833B1
:1007C0001960FB680133FB6002E022235B42FB609F
:1007D000BB681800FFF7A4FFFB681800BD4604B013
:1007E00080BDC046F401002080B588B000AFF8603D
:1007F000B9607A6000237B61FB68002B02DDFB6837
:10080000082B02DD12235B4260E0FFF794FF030038
:10081000FB610120FFF784FFFB68013BFB60FA6886
:1008200013005B009B189B002A4A9B18BB61BB69A5
:100830001B78012B42D1BB695B68BA689A4206DC1F
:10084000BB695A68BB68D21ABB695A6039E07B68D9
:10085000002B03D132235B427B6132E01E4B1B68CD
:100860005B699A001D4BD318180000F0A2FA1A4BCE
:100870001B6802221A73184B1B6824220421995406
:100880007B68013303D07B680A331A0000E07A6882
:10089000114B1B689A62104B1B68BA68DA630E4BE7
:1008A0001B681422BA18DA620B4B1A680C4B110041
:1008B000180000F059FAFFF7E9FE02E02A235B4234
:1008C0007B61FB691800FFF72BFF7B691800BD46B1
:1008D00008B080BDF4010020E8010020A80100203C
:1008E0005402002080B586B000AF786039600023E4
:1008F000BB607B68002B02DD7B68082B02DD1223C6
:100900005B426FE0FFF717FF03003B610120FFF739
:1009100007FF7B68013B7B607A6813005B009B18D4
:100920009B00324A9B18FB60FB681B78012B4FD160
:10093000FB685A683B68D218FB685A60FB685A68C3
:10094000FB689B689A4239DC294B1B687B6131E06C
:100950007B6924229B5C042B29D1FB685A687B6944
:10096000DB6B9A4238DBFB685A687B69DB6BD21A17
:10097000FB685A607A691E4B1100180000F036FAC5
:100980007B6901221A737B692422002199547B69B7
:100990000822BA18DA627B695B699A00154BD31892
:1009A0007A691100180000F0DFF9FFF76FFE7B692C
:1009B0009B687B617B69002BCAD10EE0FB685A689B
:1009C0003B68D21AFB685A602B235B42BB6004E091
:1009D0002A235B42BB6000E0C0463B691800FFF77A
:1009E0009FFEBB681800BD4606B080BDF401002024
:1009F00054020020A801002080B582B000AF7860CA
:100A00007B681B681800BD4602B080BD80B582B00F
:100A100000AF786039607B683A681A60C046BD46AE
:100A200002B080BD80B500AF0B4B43211800FFF72B
:100A3000EDFF0A4B34211800FFF7E8FF084B702147
:100A40001800FFF7E3FF074A074B11001800FFF7F4
:100A5000DDFFC046BD4680BD244003402840034022
:100A60002C400340010300003040034080B584B0B7
:100A700000AF78600023FB6015E0C0460E4B180005
:100A8000FFF7BAFF030020221340F7D17B685A1CFE
:100A90007A601B781A00094B11001800FFF7B6FFA7
:100AA000FB680133FB607B681B78002BE5D1FB689A
:100AB0001800BD4604B080BD18400340004003400C
:100AC00080B582B000AF1E4B1B687B602EE07B6858
:100AD0009B6A013326D07B689B6A0A2B06D97B6808
:100AE0009B6A0A3B1A007B689A621CE07A68144B86
:100AF0001100180000F07AF97B68DB6A00221A60A6
:100B00007B6801221A737B682422002199547B6838
:100B10005B699A000B4BD3187A681100180000F03B
:100B200023F900E0C0467B689B687B607B68002BF4
:100B3000CDD1FFF7ABFDC046BD4602B080BDC0467B
:100B400054020020A801002080B582B000AF786078
:100B50007B6883F31088C046BD4602B080BD80B577
:100B600082B000AFEFF310837B607B681800BD4656
:100B700002B080BD80B586B000AF78607B681B682E
:100B80003D4A1340212B02D00B235B426FE07B6870
:100B90009B68002B03DD7B689B68102B02DD112313
:100BA0005B4264E07B68DB68002B02D111235B426F
:100BB0005DE0FFF7D4FF0300FB600120FFF7C4FFF7
:100BC00000233B610AE02D4A3B699B01D3180C339B
:100BD0001B78002B06D03B6901333B613B691F2B1F
:100BE000F1DD00E0C0463B691F2B38DC234A3B693E
:100BF0009B01D3180C3308221A70204A3B699B01D1
:100C0000D318043300221A601C4A3B699B01D31895
:100C1000083300221A607B685A6818493B699B01B7
:100C2000CB1810331A607B689A6814493B699B01A2
:100C3000CB1814331A607B68DA6810493B699B0152
:100C4000CB181C331A607B681A690C493B699B01FD
:100C5000CB1818331A603B6901337B6102E0222311
:100C60005B427B61FB681800FFF76EFF7B69180031
:100C7000BD4606B080BDC046FFFCFFFF5802002005
:100C800080B586B000AF7860396000237B617B68F7
:100C9000002B02DD7B68202B02DD12235B4235E056
:100CA000FFF75DFF03003B610120FFF74DFF7B680D
:100CB000013B9A01174BD318FB60FB681B7B082B89
:100CC0001CD1FB6801221A73FB689869FB68DB6919
:100CD0001900FB681B691A00FFF770FA0200FB6835
:100CE0001A60FB685B699A000B4BD318FA68110015
:100CF000180000F039F8FFF7C9FC02E029235B4235
:100D00007B613B691800FFF71FFF7B691800BD4638
:100D100006B080BD58020020A801002080B582B036
:100D200000AFFFF71CFF03007B600120FFF70CFF03
:100D30000B4B1B6808221A73094B1B685B699A00EE
:100D4000084BD318180000F034F8FFF79FFC7B68BD
:100D50001800FFF7F9FEC046BD4602B080BDC04690
:100D6000E8010020A801002080B584B000AF7860C1
:100D700039607B681B68002B06D17B683A681A6073
:100D80003B683A685A600DE07B681B685B68FB60F3
:100D9000FB683A689A603B68FA685A607B681B682F
:100DA0003A685A603B6800229A60C046BD4604B06B
:100DB00080BD80B584B000AF78607B681B68002B75
:100DC00010D07B681B68FB60FB689A687B681A60C0
:100DD0007B681B68002B06D07B681B68FA6852682A
:100DE0005A6000E0C046BD4604B080BD80B582B008
:100DF00000AF786039607B681B683A689A4204D11A
:100E00007B681800FFF7D5FF13E03B685B683A6822
:100E100092689A603B689B68002B05D03B689B6892
:100E20003A6852685A6004E07B681B683A68526806
:100E30005A60C046BD4602B080BD000080B582B099
:100E400000AF78607B6883F31088C046BD4602B06F
:100E500080BD80B582B000AFEFF310837B607B680C
:100E60001800BD4602B080BD80B584B000AF786088
:100E70000023BB60FFF7EDFF0300FB600120FFF7DD
:100E8000DDFF7B68002B24D0164B1B685B699A0042
:100E9000154BD3181800FFF78CFF124B1B6802226A
:100EA0001A73104B1B682422012199540D4B1B68A7
:100EB0007A680A329A620B4B1B680822BA18DA6207
:100EC000084B1A68094B11001800FFF74DFFFFF798
:100ED000DDFBFB681800FFF7B1FFBB681800BD46DB
:100EE00004B080BDE8010020A801002054020020C9
:100EF00080B584B000AF78600023BB60FFF7A9FF26
:100F00000300FB600120FFF799FF1F4B1B681B6A62
:100F1000002B05DD1C4B1B681A6A013A1A622AE095
:100F2000194B1B685B699A00184BD3181800FFF720
:100F300040FF154B1B6802221A73134B1B682422B7
:100F4000022199547B68013303D07B680A331A006D
:100F500000E07A680C4B1B689A620B4B1B680822F6
:100F6000BA18DA62084B1A68094B11001800FFF72B
:100F7000FBFEFFF78BFBFB681800FFF75FFFBB680A
:100F80001800BD4604B080BDE8010020A801002083
:100F90005402002080B586B000AF786000237B61EA
:100FA0007B68002B02DD7B68202B02DD12235B4275
:100FB00045E0FFF74EFF03003B610120FFF73EFFD6
:100FC0007B68013B9A01204BD318FB60FB681B7BBD
:100FD000022B1ED1FB6824229B5C022B19D1FA68DC
:100FE0001A4B11001800FFF701FFFB6801221A736A
:100FF000FB68242200219954FB685B699A00144B1A
:10100000D318FA6811001800FFF7AEFEFFF73EFB99
:1010100010E0FB681B7B012B03D0FB681B7B022BC2
:1010200005D1FB681B6A5A1CFB681A6202E029237F
:101030005B427B613B691800FFF700FF7B6918008A
:10104000BD4606B080BDC0465802002054020020B4
:10105000A801002080B582B000AF78607B681B6873
:101060001800BD4602B080BD80B582B000AF786088
:1010700039607B683A681A60C046BD4602B080BDE0
:1010800080B582B000AF786039607B68C022920181
:10109000944663443A681A60C046BD4602B080BDBB
:1010A00080B582B000AF786039607B6880229201A1
:1010B000944663443A681A60C046BD4602B080BD9B
:1010C00080B582B000AF78607B6883F31088C0463B
:1010D000BD4602B080BD80B582B000AFEFF3108393
:1010E0007B607B681800BD4602B080BD80B588B0CB
:1010F00000AFF860B9607A603B60B9680C2000F01E
:1011000059FC0300FB61F9690A005201521A93016C
:101110009B1ADB005B189B011900786800F04AFC01
:101120000300BB613B681A04BB6A1B0313437B616A
:10113000FB68204A934202D180239B0101E0802377
:101140005B013B613B691C4A19001000FFF7A8FFD7
:101150003B69194A19001000FFF792FFBA68FB6853
:1011600011001800FFF780FFFB680833BA6911000F
:101170001800FFF779FFFB68043321211800FFF7FF
:101180007FFFC046FB681800FFF764FF031EF9DA13
:10119000FB680C337A6911001800FFF765FFFB68E4
:1011A000043308211800FFF76BFFC046BD4608B0A6
:1011B00080BDC04600C0024000C00040B0B58AB04B
:1011C00000AFF861B9617A613B613A697B699A4223
:1011D00056D8FA6913005B009B189B002A4A944674
:1011E00063447B627B69BB600023FB60BA68FB6879
:1011F00011000D0E13001C023B693B6000237B6055
:101200003A687B682000290000F060FC02000B00B7
:1012100013003B627B6A04331800FFF71BFF0200D8
:101220003B6A934206D97B6A04333A6A110018007C
:10123000FFF71AFF80231A017B6A11001800FFF7DD
:101240001FFF7B6A1800FFF705FF0300E0229343AE
:101250001A00BB695B011A437B6A11001800FFF793
:1012600003FF80231A017B6A11001800FFF718FFA3
:101270007B6A04333A6A11001800FFF7F5FE00E0BC
:10128000C046BD460AB0B0BD0080004080B584B005
:1012900002AF7D4B00211800FFF7E6FEAA231B01D9
:1012A0007A4A19001000FFF7DFFE794B2F21180052
:1012B000FFF7DAFE774A754B11001800FFF7F0FED2
:1012C000C046754B1800FFF7C5FE031EF9DA734BD5
:1012D00001211800FFF7D4FEC046714B1800FFF73C
:1012E000B9FE0300012BF8D16E4B03211800FFF764
:1012F000C7FEC0466C4B1800FFF7ACFE0300012B85
:10130000F8D16A4A6A480223009306230121FFF7B5
:10131000EDFE684A68480223009305230121FFF788
:10132000E5FE80235B007B60644B1800FFF792FEB4
:1013300002007B68934205D97B68604A190010005F
:10134000FFF792FE80231B01564A19001000FFF799
:1013500097FE544B1800FFF77DFE0300E0229343F5
:10136000504A19001000FFF77FFE4E4B1800FFF7A0
:1013700071FE03000322934302221343494A1900DA
:101380001000FFF771FEC046474B1800FFF762FEE2
:10139000030004221340F7D080231B01414A1900A7
:1013A0001000FFF77DFE7B68444A19001000FFF72C
:1013B0005BFE80235B007B60414B1800FFF74AFE19
:1013C00002007B68934205D97B683D4A19001000F2
:1013D000FFF74AFE314B03211800FFF751FEC046CC
:1013E0002F4B1800FFF736FE030001221340F7D001
:1013F0002A4B1800FFF72EFE0300E0229343274AF2
:1014000019001000FFF730FE244B1800FFF722FEF2
:1014100003000322934301221343204A19001000C2
:10142000FFF722FEC0461E4B1800FFF713FE030015
:1014300002221340F7D080231B01184A1900100024
:10144000FFF72EFE7B681E4A19001000FFF70CFE06
:101450001C4B1C4A00210720FFF7B0FE194B194A0C
:1014600000210820FFF7AAFE174B164A0021092089
:10147000FFF7A4FE154B154A00210620FFF79EFE3C
:10148000C046BD4602B080BD7880004000400240AA
:101490000C40024000B0FA00044002403C80004092
:1014A000448000403080004038800040002F685960
:1014B0000080024000389C1C00C002403480004084
:1014C00040800040006CDC021BB7000040597307ED
:1014D00080B500AF2B4B20211800FFF7D1FDC0468F
:1014E000294B1800FFF7B6FD030020221340F7D068
:1014F00080235B00234A19001000FFF7C1FDC0469E
:10150000214B1800FFF7A6FD020080235B0013406B
:10151000F6D08023DB031B4A19001000FFF7B0FD53
:10152000C046194B1800FFF795FD02008023DB032E
:101530001340F6D080239B04144A19001000FFF7D3
:1015400093FD80239B04124A19001000FFF78CFDC5
:10155000104B05211800FFF787FD80239B040E4ADE
:1015600019001000FFF780FD0C4B02211800FFF757
:101570007BFD0B4B02211800FFF776FDC046BD46F0
:1015800080BDC04600C0004008C00040280000D018
:10159000180000D0CC400140240000D0044001409D
:1015A0000C40014080B584B000AF144BFB60144B7D
:1015B000BB60144B3B6007E0FA68131DFB60BB681F
:1015C000191DB96012681A60BA683B689A42F3D173
:1015D0000D4A0E4BD31A9B087B6007E0BB681A1DAF
:1015E000BA6000221A607B68013B7B607B68002B3D
:1015F000F4DCC046C046BD4604B080BD581D001096
:1016000000000020640000206C1600206400002010
:1016100080B500AF0C4B06211800FFF725FD0B4AE3
:101620000B4B11001800FFF71FFD084A094B110072
:101630001800FFF719FD044B07211800FFF714FDF0
:10164000C046BD4680BDC04610E000E0CF1213008A
:1016500014E000E018E000E080B582B000AFFFF7D2
:101660003AFD03007B600120FFF72AFDC0231B0425
:10167000094A19001000FFF7F7FCFFF707FEFFF714
:1016800027FFFFF78FFFFFF7C3FF7B681800FFF707
:1016900017FDFEF7C7FFFEE720ED00E080B500AFC5
:1016A000FEE7000080B582B000AF78607B681B6801
:1016B0001800BD4602B080BD80B582B000AF786032
:1016C00039607B683A681A60C046BD4602B080BD8A
:1016D00080B586B000AF786039603D4B1800FFF7E9
:1016E000E1FF03000C22934308221343384A1900F8
:1016F0001000FFF7E1FF80239B01364A190010001C
:10170000FFF7DAFF344B05211800FFF7D5FF334B05
:101710001800FFF7C7FF03000C229343082213436E
:101720002E4A19001000FFF7C7FF8023DB01294A6A
:1017300019001000FFF7C0FF294B05211800FFF723
:10174000BBFF284B1800FFF7ADFF0200C023DB01F1
:1017500013407B61234B1800FFF7A4FF0200C02356
:10176000DB0113403B613A697B695340FB60FB68D6
:10177000002B29D0FA6880239B0113400ED03A69D0
:1017800080239B01134009D1174B1800FFF76EF916
:10179000164B1B6802211800FEF7CDFDFA68802366
:1017A000DB0113400ED03A698023DB01134009D1DD
:1017B0000F4B1800FFF75AF90C4B1B68012118005A
:1017C000FEF7B9FD3B697B616420FFF74DFBC1E784
:1017D00038C00140280000D06C4001403CC00140AE
:1017E00074400140040000D0381D0010580A002049
:1017F000441D001080B586B002AF786039601E4B82
:1018000018680823FA1801235B4200931300202272
:101810000121FEF759FE194B1B680122524201219A
:101820001800FEF7E1FF0023FB601AE080239B0411
:10183000134A19001000FFF73FFFFA235B0018005E
:10184000FFF712FB80239B040E4A19001000FFF7DC
:1018500033FFFA235B001800FFF706FBFB68013338
:10186000FB60FB68022BE1DD044B1B6801211800C3
:10187000FFF738F8C3E7C046580A00205C0A00208A
:10188000140000D0180000D080B586B002AF786098
:1018900039601C4B18680823FA1801235B42009337
:1018A000130020220221FEF70FFE174B1B680122B6
:1018B000524201211800FEF797FF0023FB6016E05B
:1018C00080239B04114A19001000FFF7F5FE6420E5
:1018D000FFF7CAFA80239B040D4A19001000FFF796
:1018E000EBFE6420FFF7C0FAFB680133FB60FB6886
:1018F000042BE5DD044B1B6801211800FEF7F2FF05
:10190000C7E7C046580A00205C0A0020140000D037
:10191000180000D080B500AF1C4B1800FEF7B4FCD7
:1019200002001B4B1A601B4B1800FEF70FFF020052
:10193000194B1A60194B1800FFF71CF90200184BDD
:101940001A60174B1B6800211800FFF799F9154B17
:101950001800FFF70FF90200134B1A60124B1B68B7
:1019600000211800FFF78CF9104B1800FFF702F95F
:1019700002000F4B1A600E4B1B6800211800FFF786
:101980007FF900231800BD4680BDC046140000202A
:10199000580A00201C0000205C0A002028000020BB
:1019A000600E00203C000020641200205000002047
:1019B00068160020002243088B4274D303098B422F
:1019C0005FD3030A8B4244D3030B8B4228D3030C0F
:1019D0008B420DD3FF22090212BA030C8B4202D3B1
:1019E0001212090265D0030B8B4219D300E0090AD9
:1019F000C30B8B4201D3CB03C01A5241830B8B42E2
:101A000001D38B03C01A5241430B8B4201D34B03CA
:101A1000C01A5241030B8B4201D30B03C01A52412F
:101A2000C30A8B4201D3CB02C01A5241830A8B42B4
:101A300001D38B02C01A5241430A8B4201D34B029D
:101A4000C01A5241030A8B4201D30B02C01A524101
:101A5000CDD2C3098B4201D3CB01C01A52418309B5
:101A60008B4201D38B01C01A524143098B4201D3EF
:101A70004B01C01A524103098B4201D30B01C01A1A
:101A80005241C3088B4201D3CB00C01A5241830894
:101A90008B4201D38B00C01A524143088B4201D3C1
:101AA0004B00C01A5241411A00D201465241104621
:101AB0007047FFE701B5002000F006F802BDC04600
:101AC0000029F7D076E770477047C046002B11D148
:101AD000002A0FD1002900D1002802D00021C943DB
:101AE000080007B4024802A14018029003BDC04696
:101AF000D9FFFFFF03B4684601B5029800F030F843
:101B0000019B9E4602B00CBC7047C04610B5002930
:101B100003D100F007F8203002E0080000F002F8DE
:101B200010BDC0461C2101231B04984201D3000CA8
:101B300010391B0A984201D3000A08391B09984240
:101B400001D30009043902A2105C40187047C04656
:101B50000403020201010101000000000000000076
:101B6000F0B557464E464546DE46E0B504000D004A
:101B70009246994683B08B4230D82DD04946504684
:101B8000FFF7C4FF290006002000FFF7BFFF331A4C
:101B90009846203B34D49B4653465A46934042468F
:101BA0001F00534693401E00AF423BD8AF4200D1C6
:101BB00079E05B46A41BBD41002B00DA76E00022F1
:101BC00000230092019301235A469340019301237D
:101BD00042469340009329E08242CFD9002200235D
:101BE000009201930C9B002B01D01C605D6000985B
:101BF000019903B0F0BCBB46B246A946A046F0BD71
:101C000042469B4620239B1A5246DA404146130027
:101C10004A468A40170042461F43534693401E00DF
:101C2000AF42C3D900220023009201934346002B08
:101C3000D8D0FB0772081A4346467B080EE0AB4239
:101C400001D1A2420CD8A41A9D41012024196D4152
:101C50000021013E24184D41002E06D0AB42EED9A2
:101C6000013E24196D41002EF8D1009801995B4680
:101C700000196941002B24DB2B005A464646D3400D
:101C80002A001C00F2405B461500002B2ADB2600D0
:101C90009E40330026004746BE403200801A9941DC
:101CA000009001919EE7A342BCD882E742462023E0
:101CB00000219B1A0022009101920122DA40019238
:101CC00085E7424620239B1A2A0046469A40230075
:101CD000F340464613432A001C00F2405B461500C1
:101CE000002BD4DA202342462F009B1B974026006E
:101CF000DE403B003343CDE753747261742054726D
:101D000079204B65726E656C0A0000005374726135
:101D100074206D61696E2070726F6772616D0A0068
:101D20005B53434845445D205461736B205377698E
:101D30007463680A0000000042544E2D31204F4E5B
:0E1D40000A00000042544E2D30204F4E0A0083
:081D500010FEFF7F01000000FE
:101D580021000000F905001001000000000100004A
:101D6800A40000200800000000000000000000009F
:101D7800010000000100000021030000D11600103E
:101D88000A00000000040000600A0020210300008F
:101D9800F51700100A00000000040000640E00207F
:101DA80021030000891800100A0000000004000048
:041DB800681200208D
:040000051000165978
:00000001FF
